{
  "contractName": "MarketShare",
  "abi": [
    {
      "constant": false,
      "inputs": [],
      "name": "renounceOwnership",
      "outputs": [],
      "payable": false,
      "stateMutability": "nonpayable",
      "type": "function",
      "signature": "0x715018a6"
    },
    {
      "constant": true,
      "inputs": [],
      "name": "getNbSellers",
      "outputs": [
        {
          "name": "",
          "type": "uint256"
        }
      ],
      "payable": false,
      "stateMutability": "view",
      "type": "function",
      "signature": "0x717cc026"
    },
    {
      "constant": true,
      "inputs": [],
      "name": "owner",
      "outputs": [
        {
          "name": "",
          "type": "address"
        }
      ],
      "payable": false,
      "stateMutability": "view",
      "type": "function",
      "signature": "0x8da5cb5b"
    },
    {
      "constant": false,
      "inputs": [
        {
          "name": "_address",
          "type": "address"
        }
      ],
      "name": "addSeller",
      "outputs": [],
      "payable": false,
      "stateMutability": "nonpayable",
      "type": "function",
      "signature": "0xd93fabfa"
    },
    {
      "constant": false,
      "inputs": [
        {
          "name": "_address",
          "type": "address"
        }
      ],
      "name": "deleteSeller",
      "outputs": [],
      "payable": false,
      "stateMutability": "nonpayable",
      "type": "function",
      "signature": "0xdbf5f4c4"
    },
    {
      "constant": true,
      "inputs": [
        {
          "name": "_address",
          "type": "address"
        }
      ],
      "name": "isSeller",
      "outputs": [
        {
          "name": "",
          "type": "bool"
        }
      ],
      "payable": false,
      "stateMutability": "view",
      "type": "function",
      "signature": "0xee95feaf"
    },
    {
      "constant": false,
      "inputs": [
        {
          "name": "_newOwner",
          "type": "address"
        }
      ],
      "name": "transferOwnership",
      "outputs": [],
      "payable": false,
      "stateMutability": "nonpayable",
      "type": "function",
      "signature": "0xf2fde38b"
    },
    {
      "anonymous": false,
      "inputs": [
        {
          "indexed": true,
          "name": "previousOwner",
          "type": "address"
        }
      ],
      "name": "OwnershipRenounced",
      "type": "event",
      "signature": "0xf8df31144d9c2f0f6b59d69b8b98abd5459d07f2742c4df920b25aae33c64820"
    },
    {
      "anonymous": false,
      "inputs": [
        {
          "indexed": true,
          "name": "previousOwner",
          "type": "address"
        },
        {
          "indexed": true,
          "name": "newOwner",
          "type": "address"
        }
      ],
      "name": "OwnershipTransferred",
      "type": "event",
      "signature": "0x8be0079c531659141344cd1fd0a4f28419497f9722a3daafe3b4186f6b6457e0"
    },
    {
      "constant": false,
      "inputs": [
        {
          "name": "_value",
          "type": "int256"
        }
      ],
      "name": "recordSales",
      "outputs": [],
      "payable": false,
      "stateMutability": "nonpayable",
      "type": "function",
      "signature": "0x0b08eb5d"
    },
    {
      "constant": true,
      "inputs": [],
      "name": "getNbSales",
      "outputs": [
        {
          "name": "",
          "type": "uint256"
        }
      ],
      "payable": false,
      "stateMutability": "view",
      "type": "function",
      "signature": "0xb0444730"
    },
    {
      "constant": true,
      "inputs": [],
      "name": "getTotalSales",
      "outputs": [
        {
          "name": "",
          "type": "uint256"
        }
      ],
      "payable": false,
      "stateMutability": "view",
      "type": "function",
      "signature": "0x2156a96c"
    },
    {
      "constant": true,
      "inputs": [
        {
          "name": "_address",
          "type": "address"
        }
      ],
      "name": "getSales",
      "outputs": [
        {
          "name": "",
          "type": "uint256"
        }
      ],
      "payable": false,
      "stateMutability": "view",
      "type": "function",
      "signature": "0xe16bd3b7"
    }
  ],
  "bytecode": "0x6080604052336000806101000a81548173ffffffffffffffffffffffffffffffffffffffff021916908373ffffffffffffffffffffffffffffffffffffffff160217905550610c87806100536000396000f3006080604052600436106100af576000357c0100000000000000000000000000000000000000000000000000000000900463ffffffff1680630b08eb5d146100b45780632156a96c146100e1578063715018a61461010c578063717cc026146101235780638da5cb5b1461014e578063b0444730146101a5578063d93fabfa146101d0578063dbf5f4c414610213578063e16bd3b714610256578063ee95feaf146102ad578063f2fde38b14610308575b600080fd5b3480156100c057600080fd5b506100df6004803603810190808035906020019092919050505061034b565b005b3480156100ed57600080fd5b506100f6610473565b6040518082815260200191505060405180910390f35b34801561011857600080fd5b5061012161047d565b005b34801561012f57600080fd5b5061013861057f565b6040518082815260200191505060405180910390f35b34801561015a57600080fd5b50610163610589565b604051808273ffffffffffffffffffffffffffffffffffffffff1673ffffffffffffffffffffffffffffffffffffffff16815260200191505060405180910390f35b3480156101b157600080fd5b506101ba6105ae565b6040518082815260200191505060405180910390f35b3480156101dc57600080fd5b50610211600480360381019080803573ffffffffffffffffffffffffffffffffffffffff1690602001909291905050506105b8565b005b34801561021f57600080fd5b50610254600480360381019080803573ffffffffffffffffffffffffffffffffffffffff16906020019092919050505061074b565b005b34801561026257600080fd5b50610297600480360381019080803573ffffffffffffffffffffffffffffffffffffffff1690602001909291905050506108de565b6040518082815260200191505060405180910390f35b3480156102b957600080fd5b506102ee600480360381019080803573ffffffffffffffffffffffffffffffffffffffff169060200190929190505050610927565b604051808215151515815260200191505060405180910390f35b34801561031457600080fd5b50610349600480360381019080803573ffffffffffffffffffffffffffffffffffffffff16906020019092919050505061097d565b005b61035433610927565b15156103c8576040517f08c379a00000000000000000000000000000000000000000000000000000000081526004018080602001828103825260208152602001807f73656c6c65722061646472657373206973206e6f7420617574686f726973656481525060200191505060405180910390fd5b60008112151515610467576040517f08c379a000000000000000000000000000000000000000000000000000000000815260040180806020018281038252602f8152602001807f656e74657265642076616c7565206d75737420626520706f736974697665206f81526020017f7220657175616c20746f207a65726f000000000000000000000000000000000081525060400191505060405180910390fd5b610470816109e4565b50565b6000600454905090565b6000809054906101000a900473ffffffffffffffffffffffffffffffffffffffff1673ffffffffffffffffffffffffffffffffffffffff163373ffffffffffffffffffffffffffffffffffffffff161415156104d857600080fd5b6000809054906101000a900473ffffffffffffffffffffffffffffffffffffffff1673ffffffffffffffffffffffffffffffffffffffff167ff8df31144d9c2f0f6b59d69b8b98abd5459d07f2742c4df920b25aae33c6482060405160405180910390a260008060006101000a81548173ffffffffffffffffffffffffffffffffffffffff021916908373ffffffffffffffffffffffffffffffffffffffff160217905550565b6000600254905090565b6000809054906101000a900473ffffffffffffffffffffffffffffffffffffffff1681565b6000600554905090565b6000809054906101000a900473ffffffffffffffffffffffffffffffffffffffff1673ffffffffffffffffffffffffffffffffffffffff163373ffffffffffffffffffffffffffffffffffffffff1614151561061357600080fd5b600160008273ffffffffffffffffffffffffffffffffffffffff1673ffffffffffffffffffffffffffffffffffffffff16815260200190815260200160002060009054906101000a900460ff161515156106d5576040517f08c379a000000000000000000000000000000000000000000000000000000000815260040180806020018281038252601a8152602001807f73656c6c657220697320616c7265616479207265636f7264656400000000000081525060200191505060405180910390fd5b60018060008373ffffffffffffffffffffffffffffffffffffffff1673ffffffffffffffffffffffffffffffffffffffff16815260200190815260200160002060006101000a81548160ff0219169083151502179055506107426001600254610b2c90919063ffffffff16565b60028190555050565b6000809054906101000a900473ffffffffffffffffffffffffffffffffffffffff1673ffffffffffffffffffffffffffffffffffffffff163373ffffffffffffffffffffffffffffffffffffffff161415156107a657600080fd5b600160008273ffffffffffffffffffffffffffffffffffffffff1673ffffffffffffffffffffffffffffffffffffffff16815260200190815260200160002060009054906101000a900460ff161515610867576040517f08c379a00000000000000000000000000000000000000000000000000000000081526004018080602001828103825260158152602001807f73656c6c657220646f6573206e6f74206578697374000000000000000000000081525060200191505060405180910390fd5b6000600160008373ffffffffffffffffffffffffffffffffffffffff1673ffffffffffffffffffffffffffffffffffffffff16815260200190815260200160002060006101000a81548160ff0219169083151502179055506108d56001600254610b4890919063ffffffff16565b60028190555050565b6000600360008373ffffffffffffffffffffffffffffffffffffffff1673ffffffffffffffffffffffffffffffffffffffff168152602001908152602001600020549050919050565b6000600160008373ffffffffffffffffffffffffffffffffffffffff1673ffffffffffffffffffffffffffffffffffffffff16815260200190815260200160002060009054906101000a900460ff169050919050565b6000809054906101000a900473ffffffffffffffffffffffffffffffffffffffff1673ffffffffffffffffffffffffffffffffffffffff163373ffffffffffffffffffffffffffffffffffffffff161415156109d857600080fd5b6109e181610b61565b50565b6000600360003373ffffffffffffffffffffffffffffffffffffffff1673ffffffffffffffffffffffffffffffffffffffff16815260200190815260200160002054141515610aa457610a81600360003373ffffffffffffffffffffffffffffffffffffffff1673ffffffffffffffffffffffffffffffffffffffff16815260200190815260200160002054600454610b4890919063ffffffff16565b600481905550610a9d6001600554610b4890919063ffffffff16565b6005819055505b80600360003373ffffffffffffffffffffffffffffffffffffffff1673ffffffffffffffffffffffffffffffffffffffff168152602001908152602001600020819055506000811115610b2957610b0681600454610b2c90919063ffffffff16565b600481905550610b226001600554610b2c90919063ffffffff16565b6005819055505b50565b60008183019050828110151515610b3f57fe5b80905092915050565b6000828211151515610b5657fe5b818303905092915050565b600073ffffffffffffffffffffffffffffffffffffffff168173ffffffffffffffffffffffffffffffffffffffff1614151515610b9d57600080fd5b8073ffffffffffffffffffffffffffffffffffffffff166000809054906101000a900473ffffffffffffffffffffffffffffffffffffffff1673ffffffffffffffffffffffffffffffffffffffff167f8be0079c531659141344cd1fd0a4f28419497f9722a3daafe3b4186f6b6457e060405160405180910390a3806000806101000a81548173ffffffffffffffffffffffffffffffffffffffff021916908373ffffffffffffffffffffffffffffffffffffffff160217905550505600a165627a7a72305820d4d4ee0f9c06b40f8a9a1e3f9e9169ea89aed74a7b9dc9282d3925d9293e779d0029",
  "source": "pragma solidity ^0.4.24;\n\nimport \"./Seller.sol\";\n\n/**\n * @title MarketShare\n * @dev The MarketShare contract manages creatin, information and deletion of sales\n * records.\n */\ncontract MarketShare is Seller {\n\n    using SafeMath for uint256;\n\n    mapping(address => uint256) private sales;\n    uint256 private totalSales;\n    uint256 private nbSales;\n\n    //constructor() public { }\n\n    /**\n     * @dev records a sale from a seller\n     */\n    function recordSales(int256 _value) public isAuthorised {\n\n        /**\n         * @dev we do not allow negative sales value to be entered\n         */\n        require(_value >= 0, \"entered value must be positive or equal to zero\");\n        _addSales(uint256(_value));\n    }\n\n    function _addSales(uint256 _value) internal {\n\n        /**\n         * @dev if a sales value already exists for a given address we delete it by\n         * substracting it from totalSales and decreasing the nbSales counter\n         */\n        if (sales[msg.sender] != 0) {\n            totalSales = totalSales.sub(sales[msg.sender]);\n            nbSales = nbSales.sub(1);\n        }\n\n        sales[msg.sender] = _value;\n\n        /**\n         * @dev we record a new sales only if the _value entered is greater than zero\n         */\n        if (_value > 0) {\n           totalSales = totalSales.add(_value);\n           nbSales = nbSales.add(1);\n        }\n    }\n\n    /**\n     * @dev contract owner has the right to delete any sales record\n     */\n    function deleteSales(address _address) private onlyOwner {\n        require(isSeller(_address), \"provided address does not correspond to an authorised seller\");\n\n        /**\n         * @dev do something only if some sales have been previously recorded\n         */\n        if (sales[_address] > 0) {\n            totalSales = totalSales.sub(sales[_address]);\n            sales[_address] = 0;\n            nbSales = nbSales.sub(1);\n        }\n    }\n\n    /**\n     * @return the number of sales records coming from different seller addresses\n     */\n    function getNbSales() public view returns(uint256) {\n        return nbSales;\n    }\n\n    /**\n     * @return the total amount of sales records currently being recorded\n     */\n    function getTotalSales() public view returns(uint256) {\n        return totalSales;\n    }\n\n    /**\n     * @return the sales record currently associated to a particular seller address\n     */\n    function getSales(address _address) public view returns(uint256) {\n        return sales[_address];\n    }\n}",
  "sourcePath": "/Users/cs996qs/Desktop/Boddah/GfK/contracts/MarketShare.sol",
  "compiler": {
    "name": "solc",
    "version": "0.4.24+commit.e67f0147.Emscripten.clang"
  },
  "schemaVersion": "3.0.6",
  "updatedAt": "2019-05-16T10:04:32.123Z",
  "devdoc": {
    "methods": {
      "addSeller(address)": {
        "details": "add a new seller"
      },
      "deleteSeller(address)": {
        "details": "delete an existing seller"
      },
      "getNbSales()": {
        "return": "the number of sales records coming from different seller addresses"
      },
      "getNbSellers()": {
        "return": "the total number number of currently listed sellers"
      },
      "getSales(address)": {
        "return": "the sales record currently associated to a particular seller address"
      },
      "getTotalSales()": {
        "return": "the total amount of sales records currently being recorded"
      },
      "isSeller(address)": {
        "return": "if a given address corresponds to a listed seller"
      },
      "recordSales(int256)": {
        "details": "records a sale from a seller"
      },
      "renounceOwnership()": {
        "details": "Allows the current owner to relinquish control of the contract."
      },
      "transferOwnership(address)": {
        "details": "Allows the current owner to transfer control of the contract to a newOwner.",
        "params": {
          "_newOwner": "The address to transfer ownership to."
        }
      }
    },
    "title": "MarketShare"
  },
  "userdoc": {
    "methods": {
      "renounceOwnership()": {
        "notice": "Renouncing to ownership will leave the contract without an owner. It will not be possible to call the functions with the `onlyOwner` modifier anymore."
      }
    }
  }
}