{
  "contractName": "MarketShare",
  "abi": [
    {
      "constant": false,
      "inputs": [],
      "name": "renounceOwnership",
      "outputs": [],
      "payable": false,
      "stateMutability": "nonpayable",
      "type": "function",
      "signature": "0x715018a6"
    },
    {
      "constant": true,
      "inputs": [],
      "name": "getNbSellers",
      "outputs": [
        {
          "name": "",
          "type": "uint256"
        }
      ],
      "payable": false,
      "stateMutability": "view",
      "type": "function",
      "signature": "0x717cc026"
    },
    {
      "constant": true,
      "inputs": [],
      "name": "owner",
      "outputs": [
        {
          "name": "",
          "type": "address"
        }
      ],
      "payable": false,
      "stateMutability": "view",
      "type": "function",
      "signature": "0x8da5cb5b"
    },
    {
      "constant": false,
      "inputs": [
        {
          "name": "_address",
          "type": "address"
        }
      ],
      "name": "addSeller",
      "outputs": [],
      "payable": false,
      "stateMutability": "nonpayable",
      "type": "function",
      "signature": "0xd93fabfa"
    },
    {
      "constant": false,
      "inputs": [
        {
          "name": "_address",
          "type": "address"
        }
      ],
      "name": "deleteSeller",
      "outputs": [],
      "payable": false,
      "stateMutability": "nonpayable",
      "type": "function",
      "signature": "0xdbf5f4c4"
    },
    {
      "constant": true,
      "inputs": [
        {
          "name": "_address",
          "type": "address"
        }
      ],
      "name": "isSeller",
      "outputs": [
        {
          "name": "",
          "type": "bool"
        }
      ],
      "payable": false,
      "stateMutability": "view",
      "type": "function",
      "signature": "0xee95feaf"
    },
    {
      "constant": false,
      "inputs": [
        {
          "name": "_newOwner",
          "type": "address"
        }
      ],
      "name": "transferOwnership",
      "outputs": [],
      "payable": false,
      "stateMutability": "nonpayable",
      "type": "function",
      "signature": "0xf2fde38b"
    },
    {
      "inputs": [],
      "payable": false,
      "stateMutability": "nonpayable",
      "type": "constructor",
      "signature": "constructor"
    },
    {
      "anonymous": false,
      "inputs": [
        {
          "indexed": true,
          "name": "previousOwner",
          "type": "address"
        }
      ],
      "name": "OwnershipRenounced",
      "type": "event",
      "signature": "0xf8df31144d9c2f0f6b59d69b8b98abd5459d07f2742c4df920b25aae33c64820"
    },
    {
      "anonymous": false,
      "inputs": [
        {
          "indexed": true,
          "name": "previousOwner",
          "type": "address"
        },
        {
          "indexed": true,
          "name": "newOwner",
          "type": "address"
        }
      ],
      "name": "OwnershipTransferred",
      "type": "event",
      "signature": "0x8be0079c531659141344cd1fd0a4f28419497f9722a3daafe3b4186f6b6457e0"
    },
    {
      "constant": false,
      "inputs": [
        {
          "name": "_value",
          "type": "int256"
        }
      ],
      "name": "recordSales",
      "outputs": [],
      "payable": false,
      "stateMutability": "nonpayable",
      "type": "function",
      "signature": "0x0b08eb5d"
    },
    {
      "constant": true,
      "inputs": [],
      "name": "getNbSales",
      "outputs": [
        {
          "name": "",
          "type": "uint256"
        }
      ],
      "payable": false,
      "stateMutability": "view",
      "type": "function",
      "signature": "0xb0444730"
    },
    {
      "constant": true,
      "inputs": [],
      "name": "getTotalSales",
      "outputs": [
        {
          "name": "",
          "type": "uint256"
        }
      ],
      "payable": false,
      "stateMutability": "view",
      "type": "function",
      "signature": "0x2156a96c"
    },
    {
      "constant": true,
      "inputs": [
        {
          "name": "_address",
          "type": "address"
        }
      ],
      "name": "getSales",
      "outputs": [
        {
          "name": "",
          "type": "uint256"
        }
      ],
      "payable": false,
      "stateMutability": "view",
      "type": "function",
      "signature": "0xe16bd3b7"
    }
  ],
  "bytecode": "0x608060405234801561001057600080fd5b50336000806101000a81548173ffffffffffffffffffffffffffffffffffffffff021916908373ffffffffffffffffffffffffffffffffffffffff160217905550610b01806100606000396000f3006080604052600436106100af576000357c0100000000000000000000000000000000000000000000000000000000900463ffffffff1680630b08eb5d146100b45780632156a96c146100e1578063715018a61461010c578063717cc026146101235780638da5cb5b1461014e578063b0444730146101a5578063d93fabfa146101d0578063dbf5f4c414610213578063e16bd3b714610256578063ee95feaf146102ad578063f2fde38b14610308575b600080fd5b3480156100c057600080fd5b506100df6004803603810190808035906020019092919050505061034b565b005b3480156100ed57600080fd5b506100f66103bf565b6040518082815260200191505060405180910390f35b34801561011857600080fd5b506101216103c9565b005b34801561012f57600080fd5b506101386104cb565b6040518082815260200191505060405180910390f35b34801561015a57600080fd5b506101636104d5565b604051808273ffffffffffffffffffffffffffffffffffffffff1673ffffffffffffffffffffffffffffffffffffffff16815260200191505060405180910390f35b3480156101b157600080fd5b506101ba6104fa565b6040518082815260200191505060405180910390f35b3480156101dc57600080fd5b50610211600480360381019080803573ffffffffffffffffffffffffffffffffffffffff169060200190929190505050610504565b005b34801561021f57600080fd5b50610254600480360381019080803573ffffffffffffffffffffffffffffffffffffffff16906020019092919050505061062e565b005b34801561026257600080fd5b50610297600480360381019080803573ffffffffffffffffffffffffffffffffffffffff169060200190929190505050610758565b6040518082815260200191505060405180910390f35b3480156102b957600080fd5b506102ee600480360381019080803573ffffffffffffffffffffffffffffffffffffffff1690602001909291905050506107a1565b604051808215151515815260200191505060405180910390f35b34801561031457600080fd5b50610349600480360381019080803573ffffffffffffffffffffffffffffffffffffffff1690602001909291905050506107f7565b005b600160003373ffffffffffffffffffffffffffffffffffffffff1673ffffffffffffffffffffffffffffffffffffffff16815260200190815260200160002060009054906101000a900460ff1615156103a357600080fd5b600081121515156103b357600080fd5b6103bc8161085e565b50565b6000600454905090565b6000809054906101000a900473ffffffffffffffffffffffffffffffffffffffff1673ffffffffffffffffffffffffffffffffffffffff163373ffffffffffffffffffffffffffffffffffffffff1614151561042457600080fd5b6000809054906101000a900473ffffffffffffffffffffffffffffffffffffffff1673ffffffffffffffffffffffffffffffffffffffff167ff8df31144d9c2f0f6b59d69b8b98abd5459d07f2742c4df920b25aae33c6482060405160405180910390a260008060006101000a81548173ffffffffffffffffffffffffffffffffffffffff021916908373ffffffffffffffffffffffffffffffffffffffff160217905550565b6000600254905090565b6000809054906101000a900473ffffffffffffffffffffffffffffffffffffffff1681565b6000600554905090565b6000809054906101000a900473ffffffffffffffffffffffffffffffffffffffff1673ffffffffffffffffffffffffffffffffffffffff163373ffffffffffffffffffffffffffffffffffffffff1614151561055f57600080fd5b600160008273ffffffffffffffffffffffffffffffffffffffff1673ffffffffffffffffffffffffffffffffffffffff16815260200190815260200160002060009054906101000a900460ff161515156105b857600080fd5b60018060008373ffffffffffffffffffffffffffffffffffffffff1673ffffffffffffffffffffffffffffffffffffffff16815260200190815260200160002060006101000a81548160ff02191690831515021790555061062560016002546109a690919063ffffffff16565b60028190555050565b6000809054906101000a900473ffffffffffffffffffffffffffffffffffffffff1673ffffffffffffffffffffffffffffffffffffffff163373ffffffffffffffffffffffffffffffffffffffff1614151561068957600080fd5b600160008273ffffffffffffffffffffffffffffffffffffffff1673ffffffffffffffffffffffffffffffffffffffff16815260200190815260200160002060009054906101000a900460ff1615156106e157600080fd5b6000600160008373ffffffffffffffffffffffffffffffffffffffff1673ffffffffffffffffffffffffffffffffffffffff16815260200190815260200160002060006101000a81548160ff02191690831515021790555061074f60016002546109c290919063ffffffff16565b60028190555050565b6000600360008373ffffffffffffffffffffffffffffffffffffffff1673ffffffffffffffffffffffffffffffffffffffff168152602001908152602001600020549050919050565b6000600160008373ffffffffffffffffffffffffffffffffffffffff1673ffffffffffffffffffffffffffffffffffffffff16815260200190815260200160002060009054906101000a900460ff169050919050565b6000809054906101000a900473ffffffffffffffffffffffffffffffffffffffff1673ffffffffffffffffffffffffffffffffffffffff163373ffffffffffffffffffffffffffffffffffffffff1614151561085257600080fd5b61085b816109db565b50565b6000600360003373ffffffffffffffffffffffffffffffffffffffff1673ffffffffffffffffffffffffffffffffffffffff1681526020019081526020016000205414151561091e576108fb600360003373ffffffffffffffffffffffffffffffffffffffff1673ffffffffffffffffffffffffffffffffffffffff168152602001908152602001600020546004546109c290919063ffffffff16565b60048190555061091760016005546109c290919063ffffffff16565b6005819055505b80600360003373ffffffffffffffffffffffffffffffffffffffff1673ffffffffffffffffffffffffffffffffffffffff1681526020019081526020016000208190555060008111156109a357610980816004546109a690919063ffffffff16565b60048190555061099c60016005546109a690919063ffffffff16565b6005819055505b50565b600081830190508281101515156109b957fe5b80905092915050565b60008282111515156109d057fe5b818303905092915050565b600073ffffffffffffffffffffffffffffffffffffffff168173ffffffffffffffffffffffffffffffffffffffff1614151515610a1757600080fd5b8073ffffffffffffffffffffffffffffffffffffffff166000809054906101000a900473ffffffffffffffffffffffffffffffffffffffff1673ffffffffffffffffffffffffffffffffffffffff167f8be0079c531659141344cd1fd0a4f28419497f9722a3daafe3b4186f6b6457e060405160405180910390a3806000806101000a81548173ffffffffffffffffffffffffffffffffffffffff021916908373ffffffffffffffffffffffffffffffffffffffff160217905550505600a165627a7a72305820335a0e590dc7429a2298b287911225cdacecd655a369c8035871ca4831df1f2c0029",
  "source": "pragma solidity ^0.4.24;\n\n//import \"github.com/OpenZeppelin/zeppelin-solidity/contracts/math/SafeMath.sol\";\n//import \"../node_modules/zeppelin-solidity/contracts/math/SafeMath.sol\";\nimport \"./Seller.sol\";\n\n\n/**\n * @title MarketShare\n * @dev The MarketShare contract manages creatin, information and deletion of sales\n * records.\n */\ncontract MarketShare is Seller {\n    \n    using SafeMath for uint256;\n\n    mapping(address => uint256) private sales;\n    uint256 private totalSales;\n    uint256 private nbSales;\n\n    constructor() public {\n    }\n    \n    /**\n     * @dev records a sale from a seller\n     */\n    function recordSales(int256 _value) public isAllowed {\n        \n        /**\n         * @dev we do not allow negative sales value to be entered\n         */\n        require(_value >= 0);\n        _addSales(uint256(_value));\n    }\n    \n    function _addSales(uint256 _value) internal {\n        \n        /**\n         * @dev if a sales value already exists for a given address we delete it by \n         * substracting it from totalSales and decreasing the nbSales counter \n         */\n        if (sales[msg.sender] != 0) {\n            totalSales = totalSales.sub(sales[msg.sender]);\n            nbSales = nbSales.sub(1);\n        }\n        \n        sales[msg.sender] = _value;\n        \n        /**\n         * @dev we record a new sales only if the _value entered is greater than zero\n         */\n        if (_value > 0) {\n           totalSales = totalSales.add(_value);\n           nbSales = nbSales.add(1); \n        }\n    }\n    \n    /**\n     * @return the number of sales records coming from different seller addresses\n     */\n    function getNbSales() public view returns(uint256) {\n        return nbSales;\n    }\n    \n    /**\n     * @return the total amount of sales records currently being recorded\n     */\n    function getTotalSales() public view returns(uint256) {\n        return totalSales;\n    }\n    \n    /**\n     * @return the sales record currently associated to a particular seller address\n     */\n    function getSales(address _address) public view returns(uint256) {\n        return sales[_address];\n    }\n}",
  "sourcePath": "/Users/cs996qs/Desktop/Boddah/GfK/contracts/MarketShare.sol",
  "compiler": {
    "name": "solc",
    "version": "0.4.24+commit.e67f0147.Emscripten.clang"
  },
  "schemaVersion": "3.0.6",
  "updatedAt": "2019-05-10T14:47:33.880Z",
  "devdoc": {
    "methods": {
      "addSeller(address)": {
        "details": "add a new seller"
      },
      "deleteSeller(address)": {
        "details": "delete an existing seller"
      },
      "getNbSales()": {
        "return": "the number of sales records coming from different seller addresses"
      },
      "getNbSellers()": {
        "return": "the total number number of currently listed sellers"
      },
      "getSales(address)": {
        "return": "the sales record currently associated to a particular seller address"
      },
      "getTotalSales()": {
        "return": "the total amount of sales records currently being recorded"
      },
      "isSeller(address)": {
        "return": "if a given address corresponds to a listed seller"
      },
      "recordSales(int256)": {
        "details": "records a sale from a seller"
      },
      "renounceOwnership()": {
        "details": "Allows the current owner to relinquish control of the contract."
      },
      "transferOwnership(address)": {
        "details": "Allows the current owner to transfer control of the contract to a newOwner.",
        "params": {
          "_newOwner": "The address to transfer ownership to."
        }
      }
    },
    "title": "MarketShare"
  },
  "userdoc": {
    "methods": {
      "renounceOwnership()": {
        "notice": "Renouncing to ownership will leave the contract without an owner. It will not be possible to call the functions with the `onlyOwner` modifier anymore."
      }
    }
  }
}